{
  "contractName": "MyMinter",
  "abi": [
    {
      "inputs": [
        {
          "internalType": "address",
          "name": "ERC721address",
          "type": "address"
        }
      ],
      "stateMutability": "nonpayable",
      "type": "constructor"
    },
    {
      "inputs": [
        {
          "internalType": "address",
          "name": "",
          "type": "address"
        }
      ],
      "name": "whitelist",
      "outputs": [
        {
          "internalType": "bool",
          "name": "",
          "type": "bool"
        }
      ],
      "stateMutability": "view",
      "type": "function"
    }
  ],
  "bytecode": "0x608060405234801561001057600080fd5b506040516101703803806101708339818101604052602081101561003357600080fd5b810190808051906020019092919050505080600160006101000a81548173ffffffffffffffffffffffffffffffffffffffff021916908373ffffffffffffffffffffffffffffffffffffffff1602179055505060dc806100946000396000f3fe6080604052348015600f57600080fd5b506004361060285760003560e01c80639b19251a14602d575b600080fd5b606c60048036036020811015604157600080fd5b81019080803573ffffffffffffffffffffffffffffffffffffffff1690602001909291905050506086565b604051808215151515815260200191505060405180910390f35b60006020528060005260406000206000915054906101000a900460ff168156fea2646970667358221220085576a78663f58e9254ce422c3d7389700308b77a9e7e37f5885344d0caaf2e64736f6c63430006020033",
  "source": "// SPDX-License-Identifier: no-license\r\npragma solidity >=0.4.22 <0.8.0;\r\n\r\nimport \"./myERC721.sol\";\r\n\r\ncontract MyMinter{\r\n    \r\n    mapping(address => bool) public whitelist;\r\n    myERC721 _myERC721;\r\n\r\n    constructor(address ERC721address)public{\r\n        _myERC721 = myERC721(ERC721address);\r\n    }\r\n\r\n    \r\n    function signerIsWhitelisted(bytes32 _hash, bytes memory _signature) internal view returns (bool){\r\n\r\n        bytes32 r;\r\n        bytes32 s;\r\n        uint8 v;\r\n        // Check the signature length\r\n        if (_signature.length != 65) {\r\n        return false;\r\n        }\r\n        // Divide the signature in r, s and v variables\r\n        // ecrecover takes the signature parameters, and the only way to get them\r\n        // currently is to use assembly.\r\n        // solium-disable-next-line security/no-inline-assembly\r\n        assembly {\r\n        r := mload(add(_signature, 32))\r\n        s := mload(add(_signature, 64))\r\n        v := byte(0, mload(add(_signature, 96)))\r\n        }\r\n        // Version of signature should be 27 or 28, but 0 and 1 are also possible versions\r\n        if (v < 27) {\r\n        v += 27;\r\n        }\r\n        // If the version is correct return the signer address\r\n        if (v != 27 && v != 28) {\r\n        return false;\r\n        } else {\r\n        // solium-disable-next-line arg-overflow\r\n        return whitelist[ecrecover(keccak256(\r\n            abi.encodePacked(\"\\x19Ethereum Signed Message:\\n32\", _hash)\r\n        ), v, r, s)];\r\n        }\r\n    }\r\n\r\n    // function claimAToken(bytes memory _signature, uint256 tokenNumber) public\r\n    // returns (bool)\r\n    // {\r\n\r\n    //     // Finding next token id\r\n    //     uint nextTokenToMint = tokenNumber;\r\n\r\n    //     // Creating a hash of the concatenation of the ERC721 address and the next token to mint\r\n    //     bytes32 _hash = keccak256(abi.encode(ERC721address, nextTokenToMint));\r\n\r\n    //     // Checking that the signer of the mint order is authorized\r\n    //     require(signerIsWhitelisted(_hash, _signature), \"Claim: signer not whitelisted or signature invalid\");\r\n            \r\n    //     // Checking that the authorized minter is not the claimer\r\n    //     address tokenMintedBy = extractAddress(_hash , _signature);\r\n    //     require(tokenMintedBy != msg.sender, \"Minter and sender must be different\");\r\n\r\n    //     _myERC721.mint(msg.sender,tokenNumber);\r\n    // }\r\n}",
  "sourcePath": "c:\\Users\\Aymeric-PC\\Desktop\\Cours\\S9\\Monnaies numériques\\td8\\contracts\\MyMinter.sol",
  "compiler": {
    "name": "solc",
    "version": "0.6.2+commit.bacdbe57.Emscripten.clang"
  },
  "schemaVersion": "3.0.23",
  "updatedAt": "2020-12-11T11:49:27.282Z",
  "devdoc": {
    "methods": {}
  },
  "userdoc": {
    "methods": {}
  }
}