{
  "contractName": "MyMinter",
  "abi": [
    {
      "inputs": [],
      "stateMutability": "nonpayable",
      "type": "constructor"
    },
    {
      "inputs": [],
      "name": "HashToSign",
      "outputs": [
        {
          "internalType": "bytes32",
          "name": "",
          "type": "bytes32"
        }
      ],
      "stateMutability": "view",
      "type": "function",
      "constant": true
    },
    {
      "inputs": [
        {
          "internalType": "address",
          "name": "",
          "type": "address"
        }
      ],
      "name": "whitelist",
      "outputs": [
        {
          "internalType": "bool",
          "name": "",
          "type": "bool"
        }
      ],
      "stateMutability": "view",
      "type": "function",
      "constant": true
    },
    {
      "inputs": [
        {
          "internalType": "address",
          "name": "addr",
          "type": "address"
        }
      ],
      "name": "addressERC721",
      "outputs": [],
      "stateMutability": "nonpayable",
      "type": "function"
    },
    {
      "inputs": [
        {
          "internalType": "bytes",
          "name": "_signature",
          "type": "bytes"
        },
        {
          "internalType": "uint256",
          "name": "tokenNumber",
          "type": "uint256"
        }
      ],
      "name": "claimAToken",
      "outputs": [
        {
          "internalType": "bool",
          "name": "",
          "type": "bool"
        }
      ],
      "stateMutability": "nonpayable",
      "type": "function"
    }
  ],
  "bytecode": "0x60806040527f596f75206d757374207369676e2074686973000000000000000000000000000060005534801561003457600080fd5b5060018060003373ffffffffffffffffffffffffffffffffffffffff1673ffffffffffffffffffffffffffffffffffffffff16815260200190815260200160002060006101000a81548160ff0219169083151502179055506107b08061009b6000396000f3fe608060405234801561001057600080fd5b506004361061004c5760003560e01c8063588118af146100515780636541a4d6146100955780636700bd29146101725780639b19251a14610190575b600080fd5b6100936004803603602081101561006757600080fd5b81019080803573ffffffffffffffffffffffffffffffffffffffff1690602001909291905050506101ec565b005b610158600480360360408110156100ab57600080fd5b81019080803590602001906401000000008111156100c857600080fd5b8201836020820111156100da57600080fd5b803590602001918460018302840111640100000000831117156100fc57600080fd5b91908080601f016020809104026020016040519081016040528093929190818152602001838380828437600081840152601f19601f82011690508083019250505050505050919291929080359060200190929190505050610230565b604051808215151515815260200191505060405180910390f35b61017a610453565b6040518082815260200191505060405180910390f35b6101d2600480360360208110156101a657600080fd5b81019080803573ffffffffffffffffffffffffffffffffffffffff169060200190929190505050610459565b604051808215151515815260200191505060405180910390f35b80600360006101000a81548173ffffffffffffffffffffffffffffffffffffffff021916908373ffffffffffffffffffffffffffffffffffffffff16021790555050565b6000600360009054906101000a900473ffffffffffffffffffffffffffffffffffffffff16600260006101000a81548173ffffffffffffffffffffffffffffffffffffffff021916908373ffffffffffffffffffffffffffffffffffffffff1602179055506102a160005484610479565b6102f6576040517f08c379a00000000000000000000000000000000000000000000000000000000081526004018080602001828103825260328152602001806107496032913960400191505060405180910390fd5b6000610304600054856105f5565b90503373ffffffffffffffffffffffffffffffffffffffff168173ffffffffffffffffffffffffffffffffffffffff16141561038b576040517f08c379a00000000000000000000000000000000000000000000000000000000081526004018080602001828103825260238152602001806107266023913960400191505060405180910390fd5b600260009054906101000a900473ffffffffffffffffffffffffffffffffffffffff1673ffffffffffffffffffffffffffffffffffffffff166340c10f1933856040518363ffffffff1660e01b8152600401808373ffffffffffffffffffffffffffffffffffffffff1673ffffffffffffffffffffffffffffffffffffffff16815260200182815260200192505050600060405180830381600087803b15801561043457600080fd5b505af1158015610448573d6000803e3d6000fd5b505050505092915050565b60005481565b60016020528060005260406000206000915054906101000a900460ff1681565b600080600080604185511461049457600093505050506105ef565b6020850151925060408501519150606085015160001a9050601b8160ff1610156104bf57601b810190505b601b8160ff16141580156104d75750601c8160ff1614155b156104e857600093505050506105ef565b6001600060018860405160200180807f19457468657265756d205369676e6564204d6573736167653a0a333200000000815250601c018281526020019150506040516020818303038152906040528051906020012084878760405160008152602001604052604051808581526020018460ff1660ff1681526020018381526020018281526020019450505050506020604051602081039080840390855afa158015610597573d6000803e3d6000fd5b5050506020604051035173ffffffffffffffffffffffffffffffffffffffff1673ffffffffffffffffffffffffffffffffffffffff16815260200190815260200160002060009054906101000a900460ff1693505050505b92915050565b6000806000806041855114610610576000935050505061071f565b6020850151925060408501519150606085015160001a9050601b8160ff16101561063b57601b810190505b601b8160ff16141580156106535750601c8160ff1614155b15610664576000935050505061071f565b60018660405160200180807f19457468657265756d205369676e6564204d6573736167653a0a333200000000815250601c018281526020019150506040516020818303038152906040528051906020012082858560405160008152602001604052604051808581526020018460ff1660ff1681526020018381526020018281526020019450505050506020604051602081039080840390855afa15801561070f573d6000803e3d6000fd5b5050506020604051035193505050505b9291505056fe4d696e74657220616e642073656e646572206d75737420626520646966666572656e74436c61696d3a207369676e6572206e6f742077686974656c6973746564206f72207369676e617475726520696e76616c6964a2646970667358221220fffe47f60dee1cf024fc16dcb47a673abb406a74fa992162a39a7ff11f95160f64736f6c63430006020033",
  "source": "// SPDX-License-Identifier: no-license\npragma solidity >=0.4.22 <0.8.0;\n\nimport \"./myERC721.sol\";\n\ncontract MyMinter{\n    \n    bytes32 public HashToSign= \"You must sign this\";\n    mapping(address => bool) public whitelist;\n    myERC721 _myERC721;\n    address ERC721address;\n    constructor()public{\n        whitelist[msg.sender] = true;\n    }\n\n    function addressERC721(address addr) public{\n        ERC721address = addr;\n    }\n    function signerIsWhitelisted(bytes32 _hash, bytes memory _signature) internal view returns (bool){\n\n        bytes32 r;\n        bytes32 s;\n        uint8 v;\n        // Check the signature length\n        if (_signature.length != 65) {\n        return false;\n        }\n        // Divide the signature in r, s and v variables\n        // ecrecover takes the signature parameters, and the only way to get them\n        // currently is to use assembly.\n        // solium-disable-next-line security/no-inline-assembly\n        assembly {\n        r := mload(add(_signature, 32))\n        s := mload(add(_signature, 64))\n        v := byte(0, mload(add(_signature, 96)))\n        }\n        // Version of signature should be 27 or 28, but 0 and 1 are also possible versions\n        if (v < 27) {\n        v += 27;\n        }\n        // If the version is correct return the signer address\n        if (v != 27 && v != 28) {\n        return false;\n        } else {\n        // solium-disable-next-line arg-overflow\n        return whitelist[ecrecover(keccak256(\n            abi.encodePacked(\"\\x19Ethereum Signed Message:\\n32\", _hash)\n        ), v, r, s)];\n        }\n    }\n\n    function extractAddress(bytes32 _hash, bytes memory _signature) internal view returns (address) {\n        bytes32 r;\n        bytes32 s;\n        uint8 v;\n        // Check the signature length\n        if (_signature.length != 65) {\n            return address(0);\n        }\n        // Divide the signature in r, s and v variables\n        // ecrecover takes the signature parameters, and the only way to get them\n        // currently is to use assembly.\n        // solium-disable-next-line security/no-inline-assembly\n        assembly {\n            r := mload(add(_signature, 32))\n            s := mload(add(_signature, 64))\n            v := byte(0, mload(add(_signature, 96)))\n        }\n        // Version of signature should be 27 or 28, but 0 and 1 are also possible versions\n        if (v < 27) {\n            v += 27;\n        }\n        // If the version is correct return the signer address\n        if (v != 27 && v != 28) {\n            return address(0);\n        } else {\n            // solium-disable-next-line arg-overflow\n            return ecrecover(keccak256(\n                abi.encodePacked(\"\\x19Ethereum Signed Message:\\n32\", _hash)\n                ), v, r, s);\n        }\n    }\n\n    function claimAToken(bytes memory _signature, uint256 tokenNumber) public\n    returns (bool)\n    {\n        _myERC721 = myERC721(ERC721address);\n\n        // Checking that the signer of the mint order is authorized\n        require(signerIsWhitelisted(HashToSign, _signature), \"Claim: signer not whitelisted or signature invalid\");\n            \n        // Checking that the authorized minter is not the claimer\n        address tokenMintedBy = extractAddress(HashToSign , _signature);\n        require(tokenMintedBy != msg.sender, \"Minter and sender must be different\");\n\n        _myERC721.mint(msg.sender,tokenNumber);\n    }\n}",
  "sourcePath": "/home/antoine/Documents/A5/BLOCKCHAIN/MetaTransaction_ethereum/contracts/MyMinter.sol",
  "compiler": {
    "name": "solc",
    "version": "0.6.2+commit.bacdbe57.Emscripten.clang"
  },
  "schemaVersion": "3.2.5",
  "updatedAt": "2020-12-12T18:06:39.600Z",
  "networkType": "ethereum",
  "devdoc": {
    "methods": {}
  },
  "userdoc": {
    "methods": {}
  }
}